{
  "_format": "hh-sol-artifact-1",
  "contractName": "SharedWallet",
  "sourceName": "contracts/SharedWallet.sol",
  "abi": [
    {
      "inputs": [],
      "stateMutability": "nonpayable",
      "type": "constructor"
    },
    {
      "anonymous": false,
      "inputs": [
        {
          "indexed": false,
          "internalType": "address",
          "name": "_sender",
          "type": "address"
        },
        {
          "indexed": false,
          "internalType": "uint256",
          "name": "_amount",
          "type": "uint256"
        }
      ],
      "name": "Deposit",
      "type": "event"
    },
    {
      "anonymous": false,
      "inputs": [
        {
          "indexed": true,
          "internalType": "address",
          "name": "previousOwner",
          "type": "address"
        },
        {
          "indexed": true,
          "internalType": "address",
          "name": "newOwner",
          "type": "address"
        }
      ],
      "name": "OwnershipTransferred",
      "type": "event"
    },
    {
      "anonymous": false,
      "inputs": [
        {
          "indexed": false,
          "internalType": "address",
          "name": "_sender",
          "type": "address"
        },
        {
          "indexed": false,
          "internalType": "address",
          "name": "_recipient",
          "type": "address"
        },
        {
          "indexed": false,
          "internalType": "uint256",
          "name": "_amount",
          "type": "uint256"
        }
      ],
      "name": "Transfer",
      "type": "event"
    },
    {
      "anonymous": false,
      "inputs": [
        {
          "indexed": false,
          "internalType": "address",
          "name": "_recipient",
          "type": "address"
        },
        {
          "indexed": false,
          "internalType": "uint256",
          "name": "_amount",
          "type": "uint256"
        }
      ],
      "name": "Withdraw",
      "type": "event"
    },
    {
      "inputs": [
        {
          "internalType": "address",
          "name": "_beneficiary",
          "type": "address"
        },
        {
          "internalType": "uint256",
          "name": "_amount",
          "type": "uint256"
        }
      ],
      "name": "addOwner",
      "outputs": [],
      "stateMutability": "nonpayable",
      "type": "function"
    },
    {
      "inputs": [
        {
          "internalType": "address",
          "name": "",
          "type": "address"
        }
      ],
      "name": "approvedOwner",
      "outputs": [
        {
          "internalType": "uint256",
          "name": "",
          "type": "uint256"
        }
      ],
      "stateMutability": "view",
      "type": "function"
    },
    {
      "inputs": [],
      "name": "deposit",
      "outputs": [],
      "stateMutability": "payable",
      "type": "function"
    },
    {
      "inputs": [
        {
          "internalType": "address",
          "name": "_beneficiary",
          "type": "address"
        },
        {
          "internalType": "uint256",
          "name": "_amount",
          "type": "uint256"
        }
      ],
      "name": "increaseUserSpendLimit",
      "outputs": [],
      "stateMutability": "nonpayable",
      "type": "function"
    },
    {
      "inputs": [],
      "name": "owner",
      "outputs": [
        {
          "internalType": "address",
          "name": "",
          "type": "address"
        }
      ],
      "stateMutability": "view",
      "type": "function"
    },
    {
      "inputs": [
        {
          "internalType": "address",
          "name": "_beneficiary",
          "type": "address"
        }
      ],
      "name": "removeOwner",
      "outputs": [],
      "stateMutability": "nonpayable",
      "type": "function"
    },
    {
      "inputs": [],
      "name": "renounceOwnership",
      "outputs": [],
      "stateMutability": "nonpayable",
      "type": "function"
    },
    {
      "inputs": [
        {
          "internalType": "address",
          "name": "_to",
          "type": "address"
        },
        {
          "internalType": "uint256",
          "name": "_amount",
          "type": "uint256"
        }
      ],
      "name": "transfer",
      "outputs": [],
      "stateMutability": "nonpayable",
      "type": "function"
    },
    {
      "inputs": [
        {
          "internalType": "address",
          "name": "newOwner",
          "type": "address"
        }
      ],
      "name": "transferOwnership",
      "outputs": [],
      "stateMutability": "nonpayable",
      "type": "function"
    },
    {
      "inputs": [
        {
          "internalType": "uint256",
          "name": "_amount",
          "type": "uint256"
        }
      ],
      "name": "withdraw",
      "outputs": [],
      "stateMutability": "nonpayable",
      "type": "function"
    },
    {
      "stateMutability": "payable",
      "type": "receive"
    }
  ],
  "bytecode": "0x608060405234801561001057600080fd5b5061002d61002261003960201b60201c565b61004160201b60201c565b60018081905550610105565b600033905090565b60008060009054906101000a900473ffffffffffffffffffffffffffffffffffffffff169050816000806101000a81548173ffffffffffffffffffffffffffffffffffffffff021916908373ffffffffffffffffffffffffffffffffffffffff1602179055508173ffffffffffffffffffffffffffffffffffffffff168173ffffffffffffffffffffffffffffffffffffffff167f8be0079c531659141344cd1fd0a4f28419497f9722a3daafe3b4186f6b6457e060405160405180910390a35050565b61198f806101146000396000f3fe6080604052600436106100955760003560e01c80638da5cb5b116100595780638da5cb5b1461019c578063a9059cbb146101c7578063d0e30db0146101f0578063dc755ece146101fa578063f2fde38b14610237576100dc565b8063173825d9146100e15780632e1a7d4d1461010a57806338ae13f9146101335780633cc38f5c1461015c578063715018a614610185576100dc565b366100dc577fe1fffcc4923d04b559f4d29a8bfc6cda04eb5b0d3c460751c2402c5c5cc9109c6100c3610260565b346040516100d2929190611212565b60405180910390a1005b600080fd5b3480156100ed57600080fd5b506101086004803603810190610103919061126c565b610268565b005b34801561011657600080fd5b50610131600480360381019061012c91906112c5565b610424565b005b34801561013f57600080fd5b5061015a600480360381019061015591906112f2565b6107e3565b005b34801561016857600080fd5b50610183600480360381019061017e91906112f2565b6109b1565b005b34801561019157600080fd5b5061019a610b36565b005b3480156101a857600080fd5b506101b1610bbe565b6040516101be9190611332565b60405180910390f35b3480156101d357600080fd5b506101ee60048036038101906101e991906112f2565b610be7565b005b6101f8610fa2565b005b34801561020657600080fd5b50610221600480360381019061021c919061126c565b610fe4565b60405161022e919061134d565b60405180910390f35b34801561024357600080fd5b5061025e6004803603810190610259919061126c565b610ffc565b005b600033905090565b610270610260565b73ffffffffffffffffffffffffffffffffffffffff1661028e610bbe565b73ffffffffffffffffffffffffffffffffffffffff16146102e4576040517f08c379a00000000000000000000000000000000000000000000000000000000081526004016102db906113c5565b60405180910390fd5b6000600260008373ffffffffffffffffffffffffffffffffffffffff1673ffffffffffffffffffffffffffffffffffffffff1681526020019081526020016000205411610366576040517f08c379a000000000000000000000000000000000000000000000000000000000815260040161035d90611431565b60405180910390fd5b61036e610bbe565b73ffffffffffffffffffffffffffffffffffffffff168173ffffffffffffffffffffffffffffffffffffffff1614156103dc576040517f08c379a00000000000000000000000000000000000000000000000000000000081526004016103d39061149d565b60405180910390fd5b6000600260008373ffffffffffffffffffffffffffffffffffffffff1673ffffffffffffffffffffffffffffffffffffffff1681526020019081526020016000208190555050565b6002600154141561046a576040517f08c379a000000000000000000000000000000000000000000000000000000000815260040161046190611509565b60405180910390fd5b600260018190555061047a610bbe565b73ffffffffffffffffffffffffffffffffffffffff16610498610260565b73ffffffffffffffffffffffffffffffffffffffff1614806104f957506000600260003373ffffffffffffffffffffffffffffffffffffffff1673ffffffffffffffffffffffffffffffffffffffff16815260200190815260200160002054115b610538576040517f08c379a000000000000000000000000000000000000000000000000000000000815260040161052f90611575565b60405180910390fd5b8047101561057b576040517f08c379a0000000000000000000000000000000000000000000000000000000008152600401610572906115e1565b60405180910390fd5b610583610bbe565b73ffffffffffffffffffffffffffffffffffffffff166105a1610260565b73ffffffffffffffffffffffffffffffffffffffff16146106465780600260006105c9610260565b73ffffffffffffffffffffffffffffffffffffffff1673ffffffffffffffffffffffffffffffffffffffff168152602001908152602001600020541015610645576040517f08c379a000000000000000000000000000000000000000000000000000000000815260040161063c9061164d565b60405180910390fd5b5b6000610650610260565b73ffffffffffffffffffffffffffffffffffffffff16826040516106739061169e565b60006040518083038185875af1925050503d80600081146106b0576040519150601f19603f3d011682016040523d82523d6000602084013e6106b5565b606091505b50509050806106f9576040517f08c379a00000000000000000000000000000000000000000000000000000000081526004016106f090611725565b60405180910390fd5b610701610bbe565b73ffffffffffffffffffffffffffffffffffffffff1661071f610260565b73ffffffffffffffffffffffffffffffffffffffff1614610798578160026000610747610260565b73ffffffffffffffffffffffffffffffffffffffff1673ffffffffffffffffffffffffffffffffffffffff16815260200190815260200160002060008282546107909190611774565b925050819055505b7f884edad9ce6fa2440d8a54cc123490eb96d2768479d49ff9c7366125a94243646107c1610260565b836040516107d0929190611212565b60405180910390a1506001808190555050565b6107eb610260565b73ffffffffffffffffffffffffffffffffffffffff16610809610bbe565b73ffffffffffffffffffffffffffffffffffffffff161461085f576040517f08c379a0000000000000000000000000000000000000000000000000000000008152600401610856906113c5565b60405180910390fd5b6000600260008473ffffffffffffffffffffffffffffffffffffffff1673ffffffffffffffffffffffffffffffffffffffff16815260200190815260200160002054116108e1576040517f08c379a00000000000000000000000000000000000000000000000000000000081526004016108d890611431565b60405180910390fd5b6108e9610bbe565b73ffffffffffffffffffffffffffffffffffffffff168273ffffffffffffffffffffffffffffffffffffffff161415610957576040517f08c379a000000000000000000000000000000000000000000000000000000000815260040161094e9061149d565b60405180910390fd5b80600260008473ffffffffffffffffffffffffffffffffffffffff1673ffffffffffffffffffffffffffffffffffffffff16815260200190815260200160002060008282546109a691906117a8565b925050819055505050565b6109b9610260565b73ffffffffffffffffffffffffffffffffffffffff166109d7610bbe565b73ffffffffffffffffffffffffffffffffffffffff1614610a2d576040517f08c379a0000000000000000000000000000000000000000000000000000000008152600401610a24906113c5565b60405180910390fd5b6000600260008473ffffffffffffffffffffffffffffffffffffffff1673ffffffffffffffffffffffffffffffffffffffff16815260200190815260200160002054148015610aaf5750610a7f610bbe565b73ffffffffffffffffffffffffffffffffffffffff168273ffffffffffffffffffffffffffffffffffffffff1614155b610aee576040517f08c379a0000000000000000000000000000000000000000000000000000000008152600401610ae590611870565b60405180910390fd5b80600260008473ffffffffffffffffffffffffffffffffffffffff1673ffffffffffffffffffffffffffffffffffffffff168152602001908152602001600020819055505050565b610b3e610260565b73ffffffffffffffffffffffffffffffffffffffff16610b5c610bbe565b73ffffffffffffffffffffffffffffffffffffffff1614610bb2576040517f08c379a0000000000000000000000000000000000000000000000000000000008152600401610ba9906113c5565b60405180910390fd5b610bbc60006110f4565b565b60008060009054906101000a900473ffffffffffffffffffffffffffffffffffffffff16905090565b60026001541415610c2d576040517f08c379a0000000000000000000000000000000000000000000000000000000008152600401610c2490611509565b60405180910390fd5b6002600181905550610c3d610bbe565b73ffffffffffffffffffffffffffffffffffffffff16610c5b610260565b73ffffffffffffffffffffffffffffffffffffffff161480610cbc57506000600260003373ffffffffffffffffffffffffffffffffffffffff1673ffffffffffffffffffffffffffffffffffffffff16815260200190815260200160002054115b610cfb576040517f08c379a0000000000000000000000000000000000000000000000000000000008152600401610cf290611575565b60405180910390fd5b80471015610d3e576040517f08c379a0000000000000000000000000000000000000000000000000000000008152600401610d35906115e1565b60405180910390fd5b610d46610bbe565b73ffffffffffffffffffffffffffffffffffffffff16610d64610260565b73ffffffffffffffffffffffffffffffffffffffff1614610e09578060026000610d8c610260565b73ffffffffffffffffffffffffffffffffffffffff1673ffffffffffffffffffffffffffffffffffffffff168152602001908152602001600020541015610e08576040517f08c379a0000000000000000000000000000000000000000000000000000000008152600401610dff9061164d565b60405180910390fd5b5b60008273ffffffffffffffffffffffffffffffffffffffff1682604051610e2f9061169e565b60006040518083038185875af1925050503d8060008114610e6c576040519150601f19603f3d011682016040523d82523d6000602084013e610e71565b606091505b5050905080610eb5576040517f08c379a0000000000000000000000000000000000000000000000000000000008152600401610eac90611725565b60405180910390fd5b610ebd610bbe565b73ffffffffffffffffffffffffffffffffffffffff16610edb610260565b73ffffffffffffffffffffffffffffffffffffffff1614610f54578160026000610f03610260565b73ffffffffffffffffffffffffffffffffffffffff1673ffffffffffffffffffffffffffffffffffffffff1681526020019081526020016000206000828254610f4c9190611774565b925050819055505b7fddf252ad1be2c89b69c2b068fc378daa952ba7f163c4a11628f55a4df523b3ef610f7d610260565b8484604051610f8e93929190611890565b60405180910390a150600180819055505050565b7fe1fffcc4923d04b559f4d29a8bfc6cda04eb5b0d3c460751c2402c5c5cc9109c610fcb610260565b34604051610fda929190611212565b60405180910390a1565b60026020528060005260406000206000915090505481565b611004610260565b73ffffffffffffffffffffffffffffffffffffffff16611022610bbe565b73ffffffffffffffffffffffffffffffffffffffff1614611078576040517f08c379a000000000000000000000000000000000000000000000000000000000815260040161106f906113c5565b60405180910390fd5b600073ffffffffffffffffffffffffffffffffffffffff168173ffffffffffffffffffffffffffffffffffffffff1614156110e8576040517f08c379a00000000000000000000000000000000000000000000000000000000081526004016110df90611939565b60405180910390fd5b6110f1816110f4565b50565b60008060009054906101000a900473ffffffffffffffffffffffffffffffffffffffff169050816000806101000a81548173ffffffffffffffffffffffffffffffffffffffff021916908373ffffffffffffffffffffffffffffffffffffffff1602179055508173ffffffffffffffffffffffffffffffffffffffff168173ffffffffffffffffffffffffffffffffffffffff167f8be0079c531659141344cd1fd0a4f28419497f9722a3daafe3b4186f6b6457e060405160405180910390a35050565b600073ffffffffffffffffffffffffffffffffffffffff82169050919050565b60006111e3826111b8565b9050919050565b6111f3816111d8565b82525050565b6000819050919050565b61120c816111f9565b82525050565b600060408201905061122760008301856111ea565b6112346020830184611203565b9392505050565b600080fd5b611249816111d8565b811461125457600080fd5b50565b60008135905061126681611240565b92915050565b6000602082840312156112825761128161123b565b5b600061129084828501611257565b91505092915050565b6112a2816111f9565b81146112ad57600080fd5b50565b6000813590506112bf81611299565b92915050565b6000602082840312156112db576112da61123b565b5b60006112e9848285016112b0565b91505092915050565b600080604083850312156113095761130861123b565b5b600061131785828601611257565b9250506020611328858286016112b0565b9150509250929050565b600060208201905061134760008301846111ea565b92915050565b60006020820190506113626000830184611203565b92915050565b600082825260208201905092915050565b7f4f776e61626c653a2063616c6c6572206973206e6f7420746865206f776e6572600082015250565b60006113af602083611368565b91506113ba82611379565b602082019050919050565b600060208201905081810360008301526113de816113a2565b9050919050565b7f41646472657373206e6f7420612062656e65666963696172792e000000000000600082015250565b600061141b601a83611368565b9150611426826113e5565b602082019050919050565b6000602082019050818103600083015261144a8161140e565b9050919050565b7f4f776e6572277320616464726573730000000000000000000000000000000000600082015250565b6000611487600f83611368565b915061149282611451565b602082019050919050565b600060208201905081810360008301526114b68161147a565b9050919050565b7f5265656e7472616e637947756172643a207265656e7472616e742063616c6c00600082015250565b60006114f3601f83611368565b91506114fe826114bd565b602082019050919050565b60006020820190508181036000830152611522816114e6565b9050919050565b7f55736572206e6f7420617070726f766564000000000000000000000000000000600082015250565b600061155f601183611368565b915061156a82611529565b602082019050919050565b6000602082019050818103600083015261158e81611552565b9050919050565b7f496e73756666696369656e742066756e64732e00000000000000000000000000600082015250565b60006115cb601383611368565b91506115d682611595565b602082019050919050565b600060208201905081810360008301526115fa816115be565b9050919050565b7f55736572207769746864726177206c696d69742065786365656465642e000000600082015250565b6000611637601d83611368565b915061164282611601565b602082019050919050565b600060208201905081810360008301526116668161162a565b9050919050565b600081905092915050565b50565b600061168860008361166d565b915061169382611678565b600082019050919050565b60006116a98261167b565b9150819050919050565b7f4572726f72207472616e7366657272696e672066756e64732e2054727920416760008201527f61696e2e00000000000000000000000000000000000000000000000000000000602082015250565b600061170f602483611368565b915061171a826116b3565b604082019050919050565b6000602082019050818103600083015261173e81611702565b9050919050565b7f4e487b7100000000000000000000000000000000000000000000000000000000600052601160045260246000fd5b600061177f826111f9565b915061178a836111f9565b92508282101561179d5761179c611745565b5b828203905092915050565b60006117b3826111f9565b91506117be836111f9565b9250827fffffffffffffffffffffffffffffffffffffffffffffffffffffffffffffffff038211156117f3576117f2611745565b5b828201905092915050565b7f4164647265737320616c726561647920616464656420617320612062656e656660008201527f6963696172792e00000000000000000000000000000000000000000000000000602082015250565b600061185a602783611368565b9150611865826117fe565b604082019050919050565b600060208201905081810360008301526118898161184d565b9050919050565b60006060820190506118a560008301866111ea565b6118b260208301856111ea565b6118bf6040830184611203565b949350505050565b7f4f776e61626c653a206e6577206f776e657220697320746865207a65726f206160008201527f6464726573730000000000000000000000000000000000000000000000000000602082015250565b6000611923602683611368565b915061192e826118c7565b604082019050919050565b6000602082019050818103600083015261195281611916565b905091905056fea26469706673582212202a16b43f62629555bd4ce1c6ae3243ec861e95685810992a1f4c49cbedb7bd8b64736f6c634300080b0033",
  "linkReferences": {},
  "deployedLinkReferences": {}
}